:020000040000FA
:0400000003EF00F01A
:020004000000FA
:0A00060094809482956A836A82B0A8
:1000100011EC00F082B211EC00F002C083FF07EF98
:1000200000F029EC00F029EC00F029EC00F029ECBC
:1000300000F029EC00F082A01200022A02C083FF27
:10004000120082A21200022A02C083FF120007EFF0
:1000500000F0C80E016E38EC00F038EC00F038EC1F
:1000600000F038EC00F038EC00F0012EF4D712006C
:100070002E0E006E0000002EFDD782B0120082B25C
:08008000120006000600120048
:020000040030CA
:0100010000FE
:010003001EDE
:010006008178
:00000001FF
